{"abi":[{"type":"function","name":"_string","inputs":[],"outputs":[{"name":"","type":"string","internalType":"string"}],"stateMutability":"view"}],"bytecode":{"object":"0x60c0604052600b60809081526a48656c6c6f20576562332160a81b60a0525f9061002990826100de565b50348015610035575f5ffd5b5061019c565b634e487b7160e01b5f52604160045260245ffd5b600181811c9082168061006357607f821691505b60208210810361008157634e487b7160e01b5f52602260045260245ffd5b50919050565b601f8211156100d957828211156100d957805f5260205f20601f840160051c60208510156100b257505f5b90810190601f840160051c035f5b818110156100d5575f838201556001016100c0565b5050505b505050565b81516001600160401b038111156100f7576100f761003b565b61010b81610105845461004f565b84610087565b6020601f82116001811461013d575f83156101265750848201515b5f19600385901b1c1916600184901b178455610195565b5f84815260208120601f198516915b8281101561016c578785015182556020948501946001909201910161014c565b508482101561018957868401515f19600387901b60f8161c191681555b505060018360011b0184555b5050505050565b610179806101a95f395ff3fe608060405234801561000f575f5ffd5b5060043610610029575f3560e01c80639b267f091461002d575b5f5ffd5b61003561004b565b60405161004291906100d6565b60405180910390f35b5f80546100579061010b565b80601f01602080910402602001604051908101604052809291908181526020018280546100839061010b565b80156100ce5780601f106100a5576101008083540402835291602001916100ce565b820191905f5260205f20905b8154815290600101906020018083116100b157829003601f168201915b505050505081565b602081525f82518060208401528060208501604085015e5f604082850101526040601f19601f83011684010191505092915050565b600181811c9082168061011f57607f821691505b60208210810361013d57634e487b7160e01b5f52602260045260245ffd5b5091905056fea264697066735822122095be77fcd024b3bd783c9fa1040e52ca2f4c6b575c626d91952f7f760bdcabcd64736f6c63430008210033","linkReferences":{}},"methodIdentifiers":{"_string()":"9b267f09"},"id":16}