{"abi":[{"type":"function","name":"MAX_SUPPLY","inputs":[],"outputs":[{"name":"","type":"uint256","internalType":"uint256"}],"stateMutability":"view"},{"type":"function","name":"_address","inputs":[],"outputs":[{"name":"","type":"address","internalType":"address"}],"stateMutability":"view"},{"type":"function","name":"_addressPayable","inputs":[],"outputs":[{"name":"","type":"address","internalType":"address payable"}],"stateMutability":"view"},{"type":"function","name":"_bool","inputs":[],"outputs":[{"name":"","type":"bool","internalType":"bool"}],"stateMutability":"view"},{"type":"function","name":"_byte32","inputs":[],"outputs":[{"name":"","type":"bytes32","internalType":"bytes32"}],"stateMutability":"view"},{"type":"function","name":"_int","inputs":[],"outputs":[{"name":"","type":"int256","internalType":"int256"}],"stateMutability":"view"},{"type":"function","name":"_uint","inputs":[],"outputs":[{"name":"","type":"uint256","internalType":"uint256"}],"stateMutability":"view"},{"type":"function","name":"getBalance","inputs":[],"outputs":[{"name":"","type":"uint256","internalType":"uint256"}],"stateMutability":"view"}],"bytecode":{"object":"0x60806040525f805460ff191660019081179091556107e990555f19600255600380546001600160a01b0319908116735b38da6a701c568545dcfcb03fcb875f56beddc4908117909255600480549091169091179055622baa2360e91b6005553480156068575f80fd5b5061015e806100765f395ff3fe608060405234801561000f575f80fd5b5060043610610085575f3560e01c80633f346102116100585780633f346102146100e75780638072dccf146100f05780639e6ba9c214610103578063af45869e1461011f575f80fd5b806312065fe01461008957806318bad217146100aa5780632543135b146100d557806332cb6b0c146100de575b5f80fd5b6003546001600160a01b0316315b6040519081526020015b60405180910390f35b6003546100bd906001600160a01b031681565b6040516001600160a01b0390911681526020016100a1565b61009760015481565b61009761271081565b61009760055481565b6004546100bd906001600160a01b031681565b5f5461010f9060ff1681565b60405190151581526020016100a1565b6100976002548156fea2646970667358221220acc30c82a976916a1b8fd641881842dacb97cc1da426f2baa1f9bf833afac55464736f6c634300081a0033","linkReferences":{}},"methodIdentifiers":{"MAX_SUPPLY()":"32cb6b0c","_address()":"18bad217","_addressPayable()":"8072dccf","_bool()":"9e6ba9c2","_byte32()":"3f346102","_int()":"af45869e","_uint()":"2543135b","getBalance()":"12065fe0"},"id":0}